:100000000C94E3160C9414170C9414170C941417F6
:100010000C9414170C9414170C9414170C941417B4
:100020000C9414170C9414170C9414170C941417A4
:100030000C9414170C94F5440C9414170C94141786
:100040000C9414170C94CC450C9414170C9414179E
:100050000C9414170C9414170C948B440C941F8755
:100060000C9414170C9434300C942A300C941417FC
:100070000C9414170C9414170C9414170C94141754
:100080000C9414170C9414170C9414170C94141744
:100090000C9414170C9414170C9414170C94141734
:1000A0000C9414170C9414170C9414170C94141724
:1000B0000C9414170C9414170C9414170C94141714
:1000C0000C9414170C9414170C9414170C94141704
:1000D0000C9414170C9414170C9414170C941417F4
:1000E0000C9414176F847284618465846B84A98472
:1000F00076847A848084848488848E8492849684AE
:10010000A9849C84A084A4843B86408645864F862F
:100110005986D28663866B8673867D8687869186AE
:10012000A086AA86D286B486BE86C886084AD73BF1
:100130003BCE016E84BCBFFDC12F3D6C74319ABDB6
:1001400056833DDA3D00C77F11BED9E4BB4C3E91DA
:100150006BAAAABE000000803F05A84CCDB2D44EC9
:10016000B93836A9020C50B9918688083CA6AAAACB
:100170002ABE000000803F004E414E494E4954596E
:10018000494E46CDCCCC3D0AD7233C17B7D1387762
:10019000CC2B329595E6241FB14F0A000020410078
:1001A00000C84200401C4620BCBE4CCA1B0E5AAEC2
:1001B000C59D7400407A10F35A00A0724E180900D1
:1001C00010A5D4E80000E87648170000E40B5402BC
:1001D0000000CA9A3B000000E1F5050000809698F7
:1001E00000000040420F000000A086010000001047
:1001F0002700000000E80300000000640000000089
:10020000000A00000000000100000000002C76D869
:1002100088DC674F0823DFC1DFAE59E1B1B796E54F
:10022000E3E453C63AE651997696E8E6C28426EBB3
:10023000898C9B62ED407C6FFCEFBC9C9F40F2BAC6
:10024000A56FA5F490055A2AF75C936B6CF9676D5E
:10025000C11BFCE0E40D47FEF520E6B500D0ED90B3
:100260002E0300943577050080841E080000204E80
:100270000A000000C80C333333330F986E12831119
:1002800041EF8D2114893BE65516CFFEE6DB18D1F0
:10029000844B381BF77C1D901DA4BBE424203284C2
:1002A000725E228100C9F124ECA1E53D27434F4D48
:1002B0004D554E49434154494F4E004452595255B1
:1002C0004E004552524F525300494E464F0045434F
:1002D000484F0047322F47332062616420706172BB
:1002E000616D65746572730A00536C6565702E2EBE
:1002F0002E004D65736820706F696E742063616EA7
:100300006E6F74206265207265736F6C7665640A27
:1003100000436C69636B20746F20526573756D6563
:100320002E2E2E004E6F204D6F76652E00456E648A
:100330002066696C65206C6973740A0042656769A0
:100340006E2066696C65206C6973740A00286E6F94
:100350002066696C65290043757272656E7420664B
:10036000696C653A20005344207072696E74696E3E
:1003700067206279746520004E6F742053442070AA
:1003800072696E74696E670A002E0A0044656C65B6
:1003900074696F6E206661696C65642C2046696CB7
:1003A000653A200046696C652064656C6574656417
:1003B0003A002569730025696D2025697300256958
:1003C000682025696D2025697300256964202569E9
:1003D000682025696D2025697300256979202569C4
:1003E00064202569682025696D2025697300507295
:1003F000696E742074696D653A20006F6B006F66DA
:100400006600CE02C902C202BB02AD02444542559B
:10041000473A004D3131322053687574646F776EFE
:10042000004D31313320530020573A00426564209B
:10043000436F6F6C696E672E2E2E004265642048F4
:10044000656174696E672E2E2E0043656C736F2094
:100450003344204F46462E004348414D4245525FAB
:1004600054454D5045524154555245004D4F544905
:100470004F4E5F4D4F44455300544845524D414CFB
:100480005F50524F54454354494F4E004155544FCD
:100490005245504F52545F53445F53544154555347
:1004A0000050524F4D50545F535550504F525400CE
:1004B000454D455247454E43595F50415253455271
:1004C00000434153455F4C494748545F42524947B6
:1004D00048544E45535300544F47474C455F4C4991
:1004E0004748545300534F4654574152455F504F6D
:1004F000574552004255494C445F50455243454E82
:1005000054004C4556454C494E475F4441544100C8
:100510005A5F50524F4245004155544F4C45564545
:100520004C005052494E545F4A4F420050524F4780
:1005300052455353004155544F5245504F52545F0A
:1005400054454D5000564F4C554D4554524943006B
:10055000454550524F4D0042494E4152595F464920
:100560004C455F5452414E53464552005345524903
:10057000414C5F584F4E5F584F4646004649524DDA
:10058000574152455F4E414D453A4D61726C696E1F
:1005900020322E302E342E3420284769744875625C
:1005A0002920534F555243455F434F44455F5552B1
:1005B0004C3A68747470733A2F2F67697468756267
:1005C0002E636F6D2F4D61726C696E4669726D7727
:1005D0006172652F4D61726C696E2050524F544F9D
:1005E000434F4C5F56455253494F4E3A312E3020BF
:1005F0004D414348494E455F545950453A43656C17
:10060000736F2033442045585452554445525F433C
:100610004F554E543A3120555549443A6365646507
:10062000326132662D343161322D343734382D3910
:100630006231322D6335356336326633363766665E
:100640000A002F2F20004D31343520533C696E6451
:1006500065783E206F7574206F662072616E6765E5
:100660002028302D31290A00205200416363656C37
:1006700065726174696F6E3A2050003F4A206F7551
:1006800074206F662072616E67652028302E3031CD
:1006900020746F20302E33290A0020580020204D6E
:1006A00061783A2000200020204D696E3A200053E6
:1006B0006F667420656E6473746F70733A200020E7
:1006C000466C6F773A200050726F7465637465648E
:1006D0002050696E0A00496E76616C696420657805
:1006E0007472756465720A0020643A0020693A00E9
:1006F00020703A0064697300656E0043290A006146
:10070000626C656420286D696E2074656D702000D0
:10071000436F6C64206578747275646573206172D0
:100720006520004D65736820706F696E7420636189
:100730006E6E6F74206265207265736F6C7665648F
:100740000A004D34323120696E636F7272656374D2
:1007500020706172616D6574657220757361676583
:100760000A00486F6D65202573257325732046693F
:10077000727374004F666673657473204170706C99
:10078000696564004572723A20546F6F2066617229
:100790002100546F6F206661722066726F6D207247
:1007A00065666572656E636520706F696E740A00B8
:1007B000454550524F4D204F4B0A00496E76616CB3
:1007C00069642065787472756465720A003637262C
:1007D000033C3D380E2E303E1224221E1A1C1808EF
:1007E000440AFF4308090001627573793A20706179
:1007F0007573656420666F7220696E7075740A0087
:10080000627573793A2070617573656420666F72E2
:1008100020757365720A00627573793A2070726F81
:1008200063657373696E670A0053544F50504544B3
:100830002E20005072696E7465722073746F707030
:1008400065642064756520746F206572726F7273C1
:100850002E2046697820746865206572726F722058
:10086000616E6420757365204D39393920746F20AD
:10087000726573746172742E202854656D70657290
:1008800061747572652069732072657365742E20BA
:100890005365742069742061667465722072657393
:1008A00074617274696E67290A004E6F204368652F
:1008B000636B73756D2077697468206C696E652051
:1008C0006E756D6265722C204C617374204C696E7C
:1008D000653A20004E6F20436865636B73756D2029
:1008E00077697468206C696E65206E756D626572DB
:1008F0002C204C617374204C696E653A200063684B
:1009000065636B73756D206D69736D617463682CBD
:10091000204C617374204C696E653A20004C696EFE
:1009200065204E756D626572206973206E6F74204C
:100930004C617374204C696E65204E756D626572F2
:100940002B312C204C617374204C696E653A200069
:100950004D313130005344207265616420657272FC
:100960006F720A002121204B494C4C206361757342
:100970006564206279204B494C4C20627574746F19
:100980006E2F70696E0A002121204B494C4C206368
:10099000617573656420627920746F6F206D756373
:1009A0006820696E6163746976652074696D65207D
:1009B0002D2063757272656E7420636F6D6D616E4C
:1009C000643A2000506C65617365205265736574EC
:1009D000005052494E5445522048414C5445440021
:1009E00025533A202553004B494C4C45442E2000BA
:1009F0005072696E7465722068616C7465642E2033
:100A00006B696C6C28292063616C6C6564210A0039
:100A1000416D6178204500416D6178205A00416D3B
:100A20006178205900416D6178205800412D547241
:100A30006176656C00412D5265747261637400418A
:100A40006363656C004A756E6374696F6E204465FC
:100A500076004573746570732F6D6D005A737465FD
:100A600070732F6D6D005973746570732F6D6D0009
:100A70005873746570732F6D6D00416476616E6399
:100A800065642053657474696E6773003F00436149
:100A90006E63656C00496E6974004D3432380049EC
:100AA0006E697469616C697A6520454550524F4D95
:100AB0000046696C616D656E740054656D70657299
:100AC00061747572650053746570732F6D6D004AA3
:100AD00065726B00416363656C65726174696F6E0A
:100AE0000056656C6F636974790053657420486FB4
:100AF0006D65204F66667365747300436F6E66693B
:100B00006775726174696F6E004572723A204D416B
:100B10005854454D50004D415854454D5020747225
:100B200069676765726564004572723A204D494E87
:100B300054454D50004D494E54454D5020747269F6
:100B4000676765726564004D383420582059205A13
:100B5000204500202F002042403A0020403A007CEF
:100B60003C3E5E2B3D3F2F5B5D3B2C2A225C00020E
:100B7000687474703A2F2F6D61726C696E66772E8F
:100B80006F726700687474703A2F2F6D61726C69B0
:100B90006E66772E6F726700687474703A2F2F6DCF
:100BA00061726C696E66772E6F726700322E302E1E
:100BB000342E3400322E302E342E3400322E302E8D
:100BC000342E3400687474703A2F2F6D61726C6922
:100BD0006E66772E6F726700687474703A2F2F6D8F
:100BE00061726C696E66772E6F72670068747470DC
:100BF0003A2F2F6D61726C696E66772E6F72670087
:100C000020322E302E342E34002020506C616E6E37
:100C1000657242756666657242797465733A200042
:100C20002046726565204D656D6F72793A200043EC
:100C30006F6D70696C65643A204D617220323820A6
:100C4000323032330A00204C617374205570646175
:100C50007465643A20323032302D30322D323720F4
:100C60007C20417574686F723A20286E6F6E652C17
:100C70002064656661756C7420636F6E66696729B0
:100C80000A00322E302E342E340A004D61726C6907
:100C90006E0020536F6674776172652052657365CC
:100CA000740A00205761746368646F67205265732B
:100CB00065740A002042726F776E206F757420523F
:100CC000657365740A002045787465726E616C20E6
:100CD00052657365740A00506F77657255700A002B
:100CE00073746172740A006175746F25632E6700F6
:100CF000473238585900446F6E65207072696E74BF
:100D0000696E672066696C650A004D3331004D30AD
:100D100051315331383030006572726F7220777202
:100D20006974696E6720746F2066696C650A004497
:100D30006F6E6520736176696E672066696C652EDB
:100D40000A004D323900456E6473746F707300256C
:100D50005320256320256320256320256300205A26
:100D60003A0020593A0020583A00656E6473746F57
:100D70007073206869743A200024F4D43050C38E14
:100D800020C2A24017828B7011127A910D816CD90A
:100D90000AA861E108C7586607615143061E4B5D0A
:100DA00005C145A7041A411104093D980371393161
:100DB000034036DB0265339102D4305402802E1D8D
:100DC00002632CEE01752AC501B028A0011027810D
:100DD000018F2564012B244B01E0223401AC211F3B
:100DE000018D200D01801FFC00841EED00971DDF8A
:100DF00000B81CD200E61BC600201BBC00641AB25F
:100E000000B219A8000A19A0006A189900D1179118
:100E10000040178B00B516840031167E00B315799B
:100E2000003A157300C7146F0058146A00EE136679
:100E3000008813630025135E00C7125B006C125715
:100E40000015125400C111510070114F0021114BB7
:100E500000D61049008D1047004610440002104291
:100E600000C00F4000800F3E00420F3C00060F3BC9
:100E700000CB0E3800930E37005C0E3500270E3481
:100E800000F30D3200C10D3100900D3000600D2EC9
:100E900000320D2D00050D2C00D90C2B00AE0C29B5
:100EA00000850C29005C0C2700350C27000E0C2651
:100EB00000E80B2400C40B2400A00B23007D0B23AF
:100EC000005A0B2100390B2100180B2000F80A1FD3
:100ED00000D90A1E00BB0A1E009D0A1D00800A1DC3
:100EE00000630A1C00470A1B002C0A1B00110A1A87
:100EF00000F7091A00DD091900C4091900AB091926
:100F000000920917007B091800630917004C0916A5
:100F10000036091600200916000A091500F5081503
:100F200000E0081400CC081400B8081400A4081449
:100F300000900813007D0812006B08130058081277
:100F4000004608120034081100230811001208118D
:100F50000001081100F0071000E0071000D0071092
:100F600000C0071000B0070F00A107100091070E86
:100F70000083070F0074070F0065070E0057070E68
:100F80000049070E003B070D002E070E0020070D3D
:100F90000013070D0006070D00F9060C00ED060D05
:100FA00000E0060C00D4060C00C8060C00BC060CC1
:100FB00000B0060C00A4060B0099060C008D060B71
:100FC0000082060B0077060B006C060B0061060A18
:100FD0000057060B004C060A0042060A0038060AB3
:100FE000002E060A0024060A001A060A0010060946
:100FF0000007060A00FD050900F4050900EB0509D4
:1010000000E2050900D9050900D0050900C7050956
:1010100000BE050900B5050800AD050800A50509D5
:10102000009C050800940508008C0508008405084C
:10103000007C050800740508006C050700650508BC
:10104000005D050700560508004E05070047050727
:10105000004005080038050700310507002A05078C
:1010600000230507001C050600160507000F0507ED
:10107000000805060002050700FB040600F504074A
:1010800000EE040600E8040600E2040700DB0406A4
:1010900000D5040600CF040600C9040600C30406F8
:1010A00000BD040600B7040600B1040500AC040648
:1010B00000A6040600A00405009B04060095040594
:1010C00000900406008A04050085040500800406DB
:1010D000007A04050075040500700405006B040522
:1010E0000066040500610405005C04050057040562
:1010F00000520405004D04050048040500430405A2
:10110000003E0404003A04050035040500300404E0
:10111000002C04050027040400230405001E040419
:10112000001A04040016040500110404000D040450
:1011300000090405000404040000040400FC030486
:1011400000F8030400F4030400F0030400EC0304BB
:1011500000E8030400E4030400E0030400DC0304EB
:1011600000D8030400D4030400D0030400CC03041B
:1011700000C8030300C503030024F404D9201BC4E2
:101180000C5C0E9804C4095F0265077101F405F94F
:1011900000FB04B30048048700C1036900580355ED
:1011A0000003034500BE023A008402310053022AC4
:1011B000002902250004022000E4011C00C80119D6
:1011C00000AF011700980114008401130071011091
:1011D000006101100051010E0043010D0036010BAA
:1011E000002B010B0020010B00150109000C010967
:1011F0000003010800FB000800F3000800EB0007F3
:1012000000E4000600DE000600D8000600D200065A
:1012100000CC000500C7000500C2000500BD0004A9
:1012200000B9000400B5000400B1000400AD0004E2
:1012300000A9000400A5000300A20003009F000411
:10124000009B000300980003009500020093000338
:1012500000900003008D0002008B00030088000254
:10126000008600020084000300810002007F00026B
:10127000007D0002007B000200790002007700017F
:10128000007600020074000200720001007100028A
:10129000006F0002006D0001006C0002006A000196
:1012A000006900020067000100660001006500019E
:1012B00000640002006200010061000100600001A2
:1012C000005F0002005D0001005C0001005B0001A6
:1012D000005A0001005900010058000100570001A8
:1012E00000560001005500010054000100530000A9
:1012F00000530001005200010051000100500001A4
:10130000004F0001004E0000004E0001004D0001A2
:10131000004C0001004B0000004B0001004A00019E
:10132000004900010048000000480001004700019A
:101330000046000000460001004500000045000195
:10134000004400010043000000430001004200008F
:101350000042000100410000004100010040000186
:10136000003F0000003F0001003E0000003E000181
:10137000003D0000003D0001003C0000003C00007A
:10138000003C0001003B0000003B0001003A00006F
:10139000003A000100390000003900010038000067
:1013A000003800000038000100370000003700015D
:1013B0000036000000360000003600010035000055
:1013C000003500000035000100340000003400004A
:1013D000003400010033000000330000003300013E
:1013E0000032000000320000003200010031000035
:1013F000003100000031000100300000003000002A
:1014000000300001002F0000002F0000002F00001E
:10141000002F0001002E0000002E0000002E000111
:10142000002D0000002D0000002D0000002D000107
:10143000002C0000002C0000002C0000002C0001FB
:10144000002B0000002B0000002B0000002B0001EF
:10145000002A0000002A0000002A0000002A0001E3
:1014600000290000002900000029000000290000D8
:1014700000290001002800000028000000280000CA
:1014800000280000002800010027000000270000BD
:1014900000270000002700000027000100260000B0
:1014A00000260000002600000026000000260001A3
:1014B0000025000000250000002500000025000098
:1014C0000025000000250001002400000024000089
:1014D000002400000024000000240001002300007C
:1014E0000023000000230000002300000023000070
:1014F0000023000000230001002200000022000061
:101500000022000000220000002200000022000152
:101510000021000000210000002100000021000047
:101520000021000000210000002100010020000037
:10153000002000000020000000200000002000002B
:10154000002000000020000000200001001F00001B
:10155000001F0000001F0000001F0000001F00000F
:10156000001F0000001F0001001E0000001E000000
:10157000001E0000001E000000043700001E2900AD
:1015800000511B00005810000010090000CC04009E
:10159000007802000041010000206E6F7420656E2B
:1015A00074657265642E0A004F4646004F4E002057
:1015B0006F6620004D424C2047323920706F696EB3
:1015C000742000290A004A206F7574206F6620720B
:1015D000616E67652028302D00290A0049206F754B
:1015E00074206F662072616E67652028302D004D73
:1015F0006573682070726F62696E6720646F6E65D4
:101600002E0A005374617274206D657368207072C5
:101610006F62696E672077697468202247323920CB
:101620005331222066697273742E0A004732380AD9
:1016300047323920533200686173206E6F20646135
:1016400074612E0A004D65736820426564204C6504
:1016500076656C696E67200053206F7574206F6625
:101660002072616E67652028302D35292E0A0020F2
:101670004D39322058004361703A0020573A0043F8
:101680006F6F6C696E672E2E2E0048656174696EEF
:10169000672E2E2E00452025530023646566696E53
:1016A000652044454641554C545F004B6420004B37
:1016B0006920004B702000504944204175746F74BC
:1016C000756E652066696E69736865642120507562
:1016D0007420746865206C617374204B702C204BEF
:1016E0006920616E64204B6420636F6E7374616E59
:1016F00074732066726F6D2062656C6F7720696EFF
:10170000746F20436F6E66696775726174696F6E7E
:101710002E680A00504944204175746F74756E65D7
:10172000206661696C6564212074696D656F7574EC
:101730000A00504944204175746F74756E652066C7
:1017400061696C6564212054656D706572617475A2
:10175000726520746F6F20686967680A00204B64A7
:101760003A2000204B693A2000204B703A20000AB2
:1017700020436C617373696320504944200A002040
:1017800054753A2000204B753A2000206D61783A5C
:101790002000206D696E3A200020643A200020620B
:1017A0006961733A2000504944204175746F747523
:1017B0006E652073746172740A005049442041754B
:1017C000746F74756E65206661696C656421205460
:1017D000656D706572617475726520746F6F2068D5
:1017E0006967680A00504944204175746F74756ECA
:1017F00065206661696C65642120426164206578BA
:10180000747275646572206E756D6265720A00503F
:1018100072696E74205061757365640043656C7302
:101820006F2033442052656164792E005072696ED6
:1018300074696E672E2E2E0020746F6F206C6F6E91
:101840006720657874727573696F6E207072657643
:10185000656E7465640A0020636F6C64206578743B
:10186000727573696F6E2070726576656E746564EB
:101870000A006F70656E005452494747455245440F
:10188000003A20007A5F6D696E00795F6D696E00C5
:10189000785F6D696E005265706F7274696E672053
:1018A000656E6473746F70207374617475730A006D
:1018B000205A3A0020593A0020436F756E74205820
:1018C0003A0020453A00205A3A0020593A00583A46
:1018D0000020746F6F206C6F6E672065787472756E
:1018E00073696F6E2070726576656E7465640A0048
:1018F00020636F6C6420657874727573696F6E20F5
:1019000070726576656E7465640A00486F6D696E05
:1019100067204661696C656400000000C10000003A
:1019200000000000005761726E696E673A20486FD0
:101930006D696E672042756D702044697669736FBA
:1019400072203C20310A000202040000A040000086
:10195000A040000000400000554300003E4300004E
:101960002043FFFFFF454550524F4D206461746195
:1019700073697A65206572726F722E0A00290A00F7
:101980002062797465733B20637263200020737456
:101990006F7265642073657474696E677320726515
:1019A000747269657665642028004572723A204534
:1019B0004550524F4D2043524300202863616C63D1
:1019C000756C6174656429210A0020213D20004561
:1019D0004550524F4D20435243206D69736D6174E1
:1019E0006368202D202873746F7265642920004578
:1019F00072723A20454550524F4D20496E646578C9
:101A0000002053697A653A2000496E6465783A206F
:101A1000004572723A20454550524F4D205665722E
:101A200073696F6E00204D61726C696E3D5637367A
:101A3000290A00454550524F4D2076657273696FF3
:101A40006E206D69736D617463682028454550523E
:101A50004F4D3D0048617264636F64656420446566
:101A60006661756C742053657474696E6773204C7D
:101A70006F616465640A00000096430000964300AD
:101A800000A0400000C841000020430000204300A7
:101A900080FC4500808F43B80B0000B80B0000327B
:101AA000000000102700003B2000204400204900D7
:101AB00020204D333031205000504944207365744C
:101AC00074696E67733A0020460020420020480087
:101AD00020204D3134352053004D617465726961A9
:101AE0006C2068656174757020706172616D6574D9
:101AF0006572733A002020473239205334205A004F
:101B0000204A00202047323920533320490020202A
:101B10004D3432302053004D657368204265642097
:101B20004C6576656C696E673A0020204D32303620
:101B3000205800486F6D65206F66667365743A00C3
:101B4000204A0020530020204D32303520420041F1
:101B50006476616E6365643A20423C6D696E5F73C2
:101B600065676D656E745F74696D655F75733E2042
:101B7000533C6D696E5F66656564726174653E2095
:101B8000543C6D696E5F74726176656C5F66656505
:101B900064726174653E204A3C6A756E635F646579
:101BA000763E0020540020520020204D3230342058
:101BB0005000416363656C65726174696F6E2028C3
:101BC000756E6974732F7332293A20503C707269B4
:101BD0006E745F616363656C3E20523C7265747223
:101BE0006163745F616363656C3E20543C74726131
:101BF00076656C5F616363656C3E0020204D32301A
:101C0000312058004D6178696D756D2041636365C1
:101C10006C65726174696F6E2028756E6974732FBC
:101C20007332293A00204500205A00205900202014
:101C30004D3230332058004D6178696D756D2066E6
:101C400065656472617465732028756E6974732F9D
:101C500073293A0053746570732070657220756E35
:101C600069743A0020204D3230302044300A002080
:101C7000204D3230302044002044697361626C652D
:101C8000640A0046696C616D656E742073657474D6
:101C9000696E67733A0020204D3134392043203B70
:101CA00020556E69747320696E2043656C73697585
:101CB000730A0020286D6D29002020473231202032
:101CC00020203B20556E69747320696E206D6D0075
:101CD0004D656469612052656D6F766564004D6580
:101CE00064696120496E736572746564005072693D
:101CF0006E742041626F72746564004D323500501D
:101D000061757365205072696E7400A100000069EE
:101D100000A20000006300B00000000900C1000044
:101D2000004100C20000004100C30000004100C4A7
:101D30000000004100C50000004100C60000004155
:101D400045C70000004300C80000004500C900006E
:101D5000004500CD0000004900D10000004E00D534
:101D60000000004F00D60000004F00D700000078B0
:101D700000DC0000005500DD0000005900E000001C
:101D8000006100E10000006100E20000006100E38A
:101D90000000006100E40000006100E50000006157
:101DA00000E60000006165E70000006300E8000055
:101DB000006500E90000006500EA0000006500EB36
:101DC0000000006500EC0000006900ED0000006903
:101DD00000EE0000006900EF0000006900F1000063
:101DE000006E00F20000006F00F30000006F00F4CE
:101DF0000000006F00F50000006F00F60000006FAB
:101E000000F80000006F00F90000007500FA000003
:101E1000007500FB0000007500FC0000007500FD6F
:101E20000000007900FF000000790004010000417B
:101E300000050100006100060100004300070100E9
:101E40000063000C01000043000D01000063000E60
:101E500001000044000F0100006400110100006453
:101E6000001901000065001F01000067003001003B
:101E7000004900310100006900410100004C0042AE
:101E80000100006C00430100004E00440100006EA0
:101E900000480100006E005901000072005A010064
:101EA0000053005B01000073005F010000730060DD
:101EB000010000530061010000730065010000741F
:101EC000006F01000075007C0100007A007D0100B8
:101ED000005A007E0100007A00920100006600E3D3
:101EE0000200007800222000002E001E2100005079
:101EF0007822210000544D902100003C2D922100B9
:101F0000002D3EB02100000300BB21000004003C76
:101F10002200007E00482200007E3D602200002159
:101F20003D612200003D00642200003C3D6522002E
:101F3000003E3DF12300000700A03000003D0021DD
:101F4000F301000200C2F401000500A2000000EC51
:101F500000B0000000DF00E4000000E100F6000037
:101F600000EF00F7000000FD00FC000000F500E3BA
:101F7000020000EB0087030000A5008F030000F4BF
:101F80000098030000F2009E030000E300A303009A
:101F900000F600A9030000F400AC030000E000AD6F
:101FA000030000E300B1030000E000B2030000E220
:101FB00000B5030000E300B8030000F200BC03001A
:101FC00000E400BE030000E300C0030000F700C10E
:101FD000030000E600C3030000E500902100007F3D
:101FE00000922100007E001A220000E8001E22005C
:101FF00000F30088250000FF0002300000A1000C63
:10200000300000A2000D300000A3009B300000DE75
:10201000009C300000DF00A03000003D00A1300037
:1020200000A700A2300000B100A3300000A800A467
:10203000300000B200A5300000A900A6300000B3B7
:1020400000A7300000AA00A8300000B400A93000AA
:1020500000AB00AA300000B500AB300000B600AC09
:10206000300000B6DEAD300000B700AE300000B783
:10207000DEAF300000B800B0300000B8DEB1300094
:1020800000B900B2300000B9DEB3300000BA00B4CD
:10209000300000BADEB5300000BB00B6300000BB37
:1020A000DEB7300000BC00B8300000BCDEB9300044
:1020B00000BD00BA300000BDDEBB300000BE00BC79
:1020C000300000BEDEBD300000BF00BE300000BFEB
:1020D000DEBF300000C000C0300000C0DEC13000F4
:1020E00000C100C2300000C1DEC3300000AF00C438
:1020F000300000C200C5300000C2DEC6300000C3A0
:1021000000C7300000C3DEC8300000C400C9300082
:1021100000C4DECA300000C500CB300000C600CCD1
:10212000300000C700CD300000C800CE300000C92C
:1021300000CF300000CA00D0300000CADED130002D
:1021400000CADFD2300000CB00D3300000CBDED499
:10215000300000CBDFD5300000CC00D6300000CC02
:10216000DED7300000CCDFD8300000CD00D9300001
:1021700000CDDEDA300000CDDFDB300000CE00DC49
:10218000300000CEDEDD300000CEDFDE300000CFDC
:1021900000DF300000D000E0300000D100E130006E
:1021A00000D200E2300000D300E3300000AC00E4D5
:1021B000300000D400E5300000AD00E6300000D56E
:1021C00000E7300000AE00E8300000D600E9300043
:1021D00000D700EA300000D800EB300000D900EC56
:1021E000300000DA00ED300000DB00EF300000DCF2
:1021F00000F2300000A600F3300000DD00F43000F3
:1022000000B3DEF7300000DCDEFA300000A6DEFBB3
:10221000300000A500FC300000B000FD300000A43C
:1022200000074E0000FB0086510000FC00435300F5
:1022300000FA0064FF0000A40065FF0000A500662E
:10224000FF0000A60067FF0000A70068FF0000A8CD
:102250000069FF0000A9006AFF0000AA006BFF00F0
:1022600000AB006CFF0000AC006DFF0000AD006E25
:10227000FF0000AE006FFF0000AF0070FF0000B075
:102280000071FF0000B10072FF0000B20073FF0098
:1022900000B30074FF0000B40075FF0000B50076C5
:1022A000FF0000B60077FF0000B70078FF0000B81D
:1022B0000079FF0000B9007AFF0000BA007BFF0040
:1022C00000BB007CFF0000BC007DFF0000BD007E65
:1022D000FF0000BE007FFF0000BF0080FF0000C0C5
:1022E0000081FF0000C10082FF0000C20083FF00E8
:1022F00000C30084FF0000C40085FF0000C5008605
:10230000FF0000C60087FF0000C70088FF0000C86C
:102310000089FF0000C9008AFF0000CA008BFF008F
:1023200000CB008CFF0000CC008DFF0000CD008EA4
:10233000FF0000CE008FFF0000CF0090FF0000D014
:102340000091FF0000D10092FF0000D20093FF0037
:1023500000D30094FF0000D40095FF0000D5009644
:10236000FF0000D60097FF0000D70098FF0000D8BC
:102370000099FF0000D9009AFF0000DA009BFF00DF
:1023800000DB009CFF0000DC009DFF0000DD009EE4
:10239000FF0000DE009FFF0000DF00E5FF00005CA3
:1023A00000001C1F11111F00000006191803130C58
:1023B00000040E1F041C000000000E1315110E0077
:1023C000001C10181705060500040A0A0A0A111154
:1023D0000E0C12120C00000000001F1511151F003A
:1023E000002D2D2D2D2D2D007C4D61726C696E7C84
:1023F000002D2D2D2D2D2D000000000001020404C4
:102400000000001C1C0C0404040201000000000079
:10241000040810000000000053442063617264202F
:102420006F6B0A006F70656E526F6F742066616922
:102430006C65640A00766F6C756D652E696E6974E3
:10244000206661696C65640A00534420696E697492
:10245000206661696C0A004D3234004D323320250C
:10246000730046696C652073656C65637465640A06
:10247000002053697A653A200046696C65206F70C8
:10248000656E65643A2000454E4420535542524FD4
:102490005554494E450A002220706F730022207067
:1024A0006172656E743A2200535542524F55544939
:1024B0004E452043414C4C207461726765743A224A
:1024C00000747279696E6720746F2063616C6C2090
:1024D0007375622D67636F64652066696C65732030
:1024E0007769746820746F6F206D616E79206C65F8
:1024F00076656C732E204D4158206C6576656C2096
:1025000069733A310A0057726974696E6720746F93
:102510002066696C653A20002E0A006F70656E2097
:102520006661696C65642C2046696C653A200066BA
:102530007265736800646F696E67002066696C6518
:102540003A20004E6F772000000021002400270071
:102550002A002D00300033000101000004010701B2
:102560000A0100002200250028002B002E00310067
:10257000340002010000050108010B0100002000E9
:102580002300260029002C002F003200000100004B
:1025900003010601090105050505070508080808E6
:1025A000020202020A0A08080404040401010101EB
:1025B00001010101030303030303030304070707E6
:1025C0000C0C0C0C0C0C0C0C02020202060606068B
:1025D000060606060B0B0B0B0B0B0B0B0102102058
:1025E0002008081020401020408002010201080449
:1025F00002010102040810204080804020100804DD
:102600000201800402018040201008040201080435
:102610000201010204081020408001020408102079
:10262000408000000A0B02090C0D0E08070304018C
:10263000000000000000000000000000000000009A
:102640000000000000000000000000000000121167
:10265000100000000000000000000000000000006A
:10266000000000000000000046696C2E20446961F3
:102670002E004520696E206D6DC2B30020022046F9
:10268000616374002002204D6178002002204D69B2
:102690006E004F6666004F6E004175746F74656D15
:1026A00070005654726176204D696E00566D696EE9
:1026B00000566D6178204500566D6178205A0056AD
:1026C0006D6178205900566D6178205800436F6F16
:1026D0006C646F776E00507265686561742041426A
:1026E00053005072656865617420504C410046612A
:1026F0006E20537065656400426564004E6F7A7A9F
:102700006C65004D61696E00466C6F770046616EC6
:1027100020537065656400426564004E6F7A7A6C80
:102720006500426564205A005370656564004D6120
:10273000696E004C6576656C696E6720446F6E65E6
:1027400021004D6F7665205A004732392053320000
:102750004E65787420506F696E74002569202F20B3
:102760002575004732392053310047323920533222
:1027700000436C69636B20746F20426567696E006B
:10278000486F6D696E672058595A0053746F7265AF
:102790002053657474696E6773004C6F61642053D5
:1027A000657474696E677300426564205A004661FF
:1027B000646520486569676874004F6666004F6EFF
:1027C00000426564204C6576656C696E67004C65F7
:1027D00076656C20426564004D6F74696F6E0042CF
:1027E0006564004E6F7A7A6C650046616E205370A6
:1027F00065656400436F6E66696775726174696FC1
:102800006E004C6F61642053657474696E67730069
:10281000526573746F72652044656661756C74737C
:102820000053746F72652053657474696E6773002A
:10283000507265686561742041425320436F6E6633
:10284000005072656865617420504C4120436F6E82
:102850006600416476616E636564205365747469D3
:102860006E6773004D61696E003F004261636B00EB
:1028700053746F70005072696E742066726F6D20B1
:102880004D65646961004D3231004368616E676572
:10289000204D6564696100436F6E6669677572619A
:1028A00074696F6E0054656D7065726174757265E0
:1028B000004D6F74696F6E00526573756D652050C1
:1028C00072696E74004E6F204D65646961005475C5
:1028D0006E650053746F70205072696E74005061A1
:1028E000757365205072696E7400496E666F20536F
:1028F000637265656E003F0053746172742050729C
:10290000696E740043616E63656C005072696E7429
:102910000043616E6E6F7420656E7465722073750E
:10292000626469723A2000052E2E004D61696E00C6
:102930004D6F74696F6E004D383400446973616285
:102940006C65205374657070657273004265642015
:102950004C6576656C696E67004732380041757466
:102960006F20486F6D65004D61696E00507265683B
:1029700065617420504C4120456E6400507265685A
:1029800065617420504C4120426564005072656856
:10299000656174204142532042656400507265684D
:1029A0006561742041425320456E640054656D702A
:1029B000657261747572650000004D4300003E430E
:1029C00000002043000000C10000000000000000E3
:1029D000290A002062797465733B206372632000CA
:1029E00053657474696E67732053746F72656420E5
:1029F00028002E0A006F70656E206661696C656440
:102A00002C2046696C653A20004572726F722077FF
:102A1000726974696E6720746F20454550524F4D3E
:102A2000210A006563686F3A004572726F723A005E
:102A30000A4D6561737572656420706F696E747399
:102A40003A0A00337833206D6573682E205A206F60
:102A500066667365743A200020496E76616C69641D
:102A600020657874727564657220002568753A2552
:102A7000303268750025303268753A253032687515
:102A8000002D2D2D00534400202020202020200048
:102A9000202020200043616E6E6F74206F70656E81
:102AA0002073756264697220005072696E742066CA
:102AB000726F6D204D65646961000000484200003E
:102AC000484200008040220A00556E6B6E6F776EA0
:102AD00020636F6D6D616E643A2022001000C902A0
:102AE00010012C014001220170011801B0010E01FA
:102AF000F00104015002FA00B002F0003003E600D9
:102B0000D003DC009004D2007005C800A006BE000F
:102B10000008B400B009AA00D00BA000600E960017
:102B200060118C000015820020197800C01D6E0015
:102B3000A0226400B0275A00902C500000314600BB
:102B4000E0343C0010383200903A2800603C1E000F
:102B5000A03D1400803E0A00203F00004265640052
:102B6000453100626564002C2073797374656D20B3
:102B700073746F7070656421204865617465725F5D
:102B800049443A200048656174696E67204661696E
:102B90006C65640048656174696E67206661696C84
:102BA000656400202D20496E76616C69642065782B
:102BB000747275646572206E756D62657220210A8B
:102BC0000070012C0190012701B0012201C0011DFC
:102BD00001F00118011002130130020E0160020918
:102BE0000190020401C002FF000003FA004003F557
:102BF000008003F000D003EB002004E6007004E145
:102C000000E004DC004005D700C005D2004006CD3E
:102C100000D006C8008007C3003008BE00F008B925
:102C200000C009B400B00AAF00B00BAA00D00CA5D8
:102C300000000EA000500F9B00C010960050129193
:102C40000000148C00C0158700B0178200B0197DF9
:102C500000D01B7800001E730040206E0090226997
:102C600000F024640040275F0090295A00E02B55B3
:102C700000102E500020304B0010324600E033414F
:102C80000090353C001037370070383200A0392DE5
:102C900000B03A2800A03B2300603C1E00103D1904
:102CA00000903D1400103E0F00703E0A00C03E052B
:102CB00000003F0000403FFBFF803FF6FFC03FF1B8
:102CC000FF544845524D414C2052554E41574159B1
:102CD00000546865726D616C2052756E6177617920
:102CE00000220A00656E7175657565696E67202240
:102CF000006F6B00526573656E643A20004F464664
:102D00000A0046616465204865696768742000426E
:102D10006564204C6576656C696E67200046616964
:102D20006C656420746F20656E61626C652042651D
:102D300064204C6576656C696E670A004D65736842
:102D400020426564204C6576656C20646174613A4C
:102D50000A00496E76616C6964206D6573682E0A9D
:102D6000004D6F76652025736D6D00004D6F7665A3
:102D700020302E316D6D004D6F766520316D6D0008
:102D80004D6F76652031306D6D004D6F7665204159
:102D900078697300486F74656E6420746F6F206388
:102DA0006F6C64004578747275646572004D6F765F
:102DB00065205A004D6F76652059004D6F7665206D
:102DC000580021E0E0DF11241FBECFEFD1E2DEBFCB
:102DD000CDBF00E00CBF13E0A0E0B2E0E2EAF3EE0A
:102DE00001E00BBF02C007900D92A433B107D9F7E1
:102DF00022E1A4E3B3E001C01D92A839B207E1F7D4
:102E000016E1C2EED6E100E006C021970109802F4D
:102E1000FE010E942FF1C13ED10780E00807A9F70B
:102E20000E94D6D70C94C0F10C9400002F923F92D0
:102E30004F925F926F927F928F929F92AF92BF92CA
:102E4000CF92DF92EF92FF920F931F93CF93DF9376
:102E5000CDB7DEB7C255D1090FB6F894DEBF0FBEAD
:102E6000CDBF63968FAF639720913E0361962FAFDE
:102E70006197FF24F394F0923E03809103128D3406
:102E800009F47DC2843511F40C944826873411F07E
:102E90000C946326209001123090021235E1231623
:102EA000310411F40C9465268CF454E02516310499
:102EB0003CF482E028163104E4F537FE2EC05BC2F4
:102EC00094E02916310409F4C0C055C2AAE22A16BA
:102ED000310409F48BC174F4ECE12E16310409F4C9
:102EE000F2C0FDE12F16310409F045C20E94A75738
:102EF0000C9465262BE52216310409F4F4C03CE558
:102F00002316310409F4F4C04AE52416310409F00B
:102F100032C210923D030C9465268091640288238E
:102F200011F40C9465260E9497B70E94526E0C947F
:102F3000652680916402882311F40C9465260E9412
:102F400097B782E50E948BB7882309F44CC00E9492
:102F50000BB76B017C0120E030E0A9010E948EE7F5
:102F6000882311F40C942E27809126029091270239
:102F7000A0912802B091290288A399A3AAA3BBA378
:102F800020912A0230912B0240912C0250912D0267
:102F90002CA33DA34EA35FA38090570B9090580B9A
:102FA000A090590BB0905A0B40905B0B50905C0B6B
:102FB00060905D0B70905E0BA5019401BC01CD018A
:102FC0000E948EE781110C947326A30192016CA1DB
:102FD0007DA18EA19FA10E948EE7882311F40C94FD
:102FE0002E270C94732689E40E948BB7882329F03E
:102FF0000E940BB76B017C0103C0C12CD12C760160
:103000008AE40E948BB7882311F40C9435270E9420
:103010000BB768A779A78AA79BA720E030E0A90192
:10302000C701B6010E948EE781110C94422720E06F
:1030300030E0A90168A579A58AA59BA50E948EE725
:1030400081110C9442270C942E2780E50E948BB7A7
:10305000882329F00E9481536B017C0103C0C12C9D
:10306000D12C760183E50E948BB7882361F00E9402
:103070000BB720E030E04AE754E40E94F3E70E94F7
:103080004FEF6B017C010E94E54D8091C30B8111D4
:1030900005C060E089EE92E00E94C7800E9413871D
:1030A000C60ED71EE81EF91E0E941387DC01CB0155
:1030B0008C199D09AE09BF09B7FD02C00C946526A5
:1030C0000E949831F1CF8091560B8770873011F0B4
:1030D0000C94CD2A60E08FE40E94915381110C94EE
:1030E00065260C94CD2A8FE080933D030C946526D1
:1030F000F5E62F2EF2E03F2EAAE4EA2EABE0FA2E00
:10310000A6E2B2E0B9A3A8A3BEE3CB2EBBE0DB2EC0
:1031100000E010E0F10181911F010E948BB788232C
:1031200009F44AC00E940BB72B013C01133049F04F
:10313000D6012D913D914D915C910E9405EE2B01A0
:103140003C01E8A1F9A12081318142815381C30171
:10315000B2010E9405EE4B015C012DEB37E346E81E
:1031600055EB0E942CF087FD0AC02DEB37E346E8B3
:1031700055E3C501B4010E948EE71816ECF4133034
:1031800051F44092320250923302609234027092B3
:10319000350201E011C0A5019401D7016D917D9127
:1031A0008D919C910E9406EEF7016083718382836A
:1031B0009383812F0E94916D1F5FF4E0EF0EF11C4D
:1031C00028A139A12C5F3F4F39A328A334E0C30EB7
:1031D000D11C143009F09ECF002321F082E392E04D
:1031E0000E94F54D0E9447710C94652680916402FF
:1031F000882311F40C94652689E40E948BB7F82E7D
:10320000882321F00E9408B7182F01C010E08AE43B
:103210000E948BB7082F882319F00E9408B701C0BD
:1032200080E0FF2011F0133020F4002341F08330C0
:1032300030F082EF92E00E94B9B90C94652690E1DB
:10324000E6E2F2E0A7E5BBE001900D929A95E1F786
:10325000FF2091F044E01402F0011124E450F04FFB
:1032600040815181628173814093570B5093580B79
:103270006093590B70935A0B002391F054E0850230
:10328000F0011124E051F04F80819181A281B3813E
:1032900080935B0B90935C0BA0935D0BB0935E0BE4
:1032A00086E40E948BB7882311F40C94E62E0E94CA
:1032B0000BB76B017C0120E030E0A9010E942CF0EB
:1032C000181614F00C94E62E20E030E040E752E4AB
:1032D000C701B6010E94E2EE4B015C01C0905702AB
:1032E000D0905802E0905902F0905A0220E030E06D
:1032F000A9010E948EE7882341F0809257029092A4
:103300005802A0925902B0925A02009155021091AF
:10331000560284E690E09093560280935502809086
:10332000360290903702A0903802B090390280E0C7
:1033300090E0A0E8BFE38093360290933702A09319
:103340003802B09339020E94526EC0925702D09256
:103350005802E0925902F0925A02109356020093DA
:1033600055028092360290923702A0923802B092B3
:1033700039020C9465260E9493C70C94652600912F
:103380000112109102120237110509F407C70CF05F
:10339000E8C00B34110509F4C8C40CF07EC0083134
:1033A000110509F4C2C20CF04CC00231110509F438
:1033B0001BC674F417FF02C00C9445260230110599
:1033C0000CF40BC20131110509F47EC20C944526A0
:1033D0000531110509F48CC234F50431110511F0E1
:1033E0000C9445268CE393E00E94B9B982E79FE0F4
:1033F0000E94C73E8BE1E2E7FFE0DE0111960190FB
:103400000D928A95E1F760E070E0CE0101960E948E
:10341000B6C5CE0101960E94CC3E8DE293E00E949B
:10342000B9B90C9465260631110509F465C2073156
:10343000110511F00C944526E091FF11F091001256
:1034400068C20D31110509F4F6C2BCF40A31110548
:1034500009F490C20CF475C20B31110509F498C23D
:103460000C31110511F00C9445268091FF119091BB
:1034700000120E9404880C9465260F31110509F48E
:1034800085C30CF4DFC20032110509F43CC30A32D3
:10349000110509F425C40C9445260836110509F4D4
:1034A0005DC4ACF50235110509F490C504F50D3481
:1034B000110509F450C40CF43BC40135110511F099
:1034C0000C9445260E94D5440E945EAE0E94524F45
:1034D0000E947F3668EE73E080E090E00E9495B92C
:1034E00060E08AE494E00E94C7800C94652604356D
:1034F000110509F479C50CF470C50535110509F4F9
:10350000A0C50C35110509F4BFC50C9445260D3630
:10351000110509F442C4ACF40A36110509F456C485
:103520000CF43EC40B36110509F46CC40C361105BD
:1035300011F00C9445261092ED0B109213020C948E
:1035400065260F36110509F476C40CF463C4003700
:10355000110509F4B4C40137110509F4BBC40C9476
:1035600045260D3D110511F40C9455230CF0BBC0FC
:103570000B39110509F404C50CF08BC00737110590
:1035800009F45BC60CF075C00537110509F40BC6CC
:103590000CF019C60337110511F00C9445268CE781
:1035A00095E00E94B9B960E08CE695E00E942C534A
:1035B00060E087E595E00E942C5361E080E595E0AE
:1035C0000E942C5361E085E495E00E942C5361E059
:1035D00085E395E00E942C5360E08CE295E00E9428
:1035E0002C5361E082E295E00E942C5360E088E178
:1035F00095E00E942C5360E080E195E00E942C53FE
:1036000061E082E095E00E942C5360E084EF94E05A
:103610000E942C5360E085EE94E00E942C5360E001
:1036200087ED94E00E942C5360E081EC94E00E94CE
:103630002C5360E080EB94E00E942C5360E081EA20
:1036400094E00E942C5360E08CE894E00E942C539C
:1036500061E089E794E00E942C5360E08CE694E0FE
:103660000E942C5360E088E594E00E942C530C9457
:1036700065260937110509F4EBC50CF4E1C50C38D2
:10368000110509F449C40139110509F4E8C50C9480
:1036900045260C3C110509F4CCC6ACF4083C1105D8
:1036A00009F438C634F40E3B110509F455C40C94E2
:1036B0004526093C110509F477C60B3C110509F4B0
:1036C00099C60C9445260E3C110509F4F9C60CF474
:1036D000E4C6033D110509F415C70C3D110509F4B5
:1036E000D7C70C944526053A81E0180711F40C94CD
:1036F000D124ACF50E32A1E01A0711F40C948A24FF
:1037000084F40C32E1E01E0711F40C94F62314F05B
:103710000C940B24023E110511F40C94AB230C9471
:103720004526003921E0120711F40C94CE244CF404
:103730000F32114011F00C9445260E94A6530C94B0
:1037400065260A3951E0150709F4C1C3043A11404E
:1037500011F00C9445260E943DD10C946526073F3C
:1037600091E0190711F40C941726ECF4043FB1E032
:103770001B0711F40C9411263CF40C3A114011F47F
:103780000C94A2250C944526053F21E0120711F464
:103790000C941426063F114011F00C9445260E940B
:1037A00096720C9465260C3042E0140711F40C94C8
:1037B0002F263CF4083F114011F40C941F260C9462
:1037C0004526003A93E0190709F4D2C1073E134099
:1037D00011F40C9437260C944526A090FF11B0905C
:1037E000001280E50E948BB7882359F00E94815314
:1037F0006B017C0111E0672B682B692B31F410E021
:1038000004C010E0C12CD12C760183E50E948BB757
:10381000882311F40C949C2B0E940BB720E030E01D
:103820004AE754E40E94F3E70E944FEF6B017C01EA
:1038300011110BC0672B682B692B39F4A114B1044B
:1038400021F0F5018081811102C010E001C011E07A
:103850000E94E54D112329F061E0C5010E943A81E3
:1038600005C060E081E193E00E94C78010913E03B3
:1038700083E080933E0381E08093ED0BC114D1047B
:10388000E104F10431F00E941387C60ED71EE81E32
:10389000F91E8091ED0B882311F40C94A42BC11414
:1038A000D104E104F10411F40C94A12B0E941387BC
:1038B000DC01CB018C199D09AE09BF09B7FF02C01D
:1038C0000C94A12B0C94A42B8091FB1184FF02C0BB
:1038D0000C94AB2B8091FD1187FF02C00C94AB2B95
:1038E0008091FE11837011F00C94AB2B0C94C82BBB
:1038F0000E94148A0C9465260E94F58780912111FC
:10390000877F809321110C946526803209F4108200
:10391000319680818111F9CF60E08091FF11909103
:1039200000120E944E880C9465260E9482368823DD
:1039300021F00E9467890E943CAE0E94D0680C94DE
:1039400065268091211182FF03C08B7F8093211116
:1039500080910306813089F782E0809303060E94FC
:1039600013876093D90C7093DA0C8093DB0C9093DF
:10397000DC0CE3CF8091211183FD02C00C946526FD
:1039800083E50E948BB781110C94D72B0C9465268C
:1039900083E40E9442B7882319F187E593E00E94EF
:1039A000B9B980911C0F882391F0BE016F5F7F4FE2
:1039B00089E19FE00E948F3D8E010F5F1F4FD8016C
:1039C0008D918D01882339F00E940A2FF8CF8DE464
:1039D00093E00E94B9B98AE00E940A2F0C946526F0
:1039E0008091211182FF21C086E693E00E94B9B93F
:1039F00060911D1170911E1180911F1190912011E5
:103A00004AE00E94112F8FE20E940A2F6091191143
:103A100070911A1180911B1190911C114AE00E9423
:103A2000112F0E9407300C94652688E793E00E94CE
:103A3000B9B90C946526809121118E7F8093211154
:103A40000C9465268091211183FD02C00C9465269B
:103A50000E947DC78091211183FD02C00C946526D0
:103A60004091FF1150910012BE01645E7F4F80E0D3
:103A70000E944EB48C01009711F40C9465266C8D55
:103A80007D8D19821C8222E0AC01CE0101960E943C
:103A90006D41811102C0F12C14C0CE0101960E942B
:103AA000BCB38823C1F361E0CE0101960E94733D4F
:103AB000009789F325EEFC0120831C820E9467C1D8
:103AC000F82ECE0101960E94CC3EB801FF2089F06D
:103AD00084EA93E00E9498BA8AE00E940A2F10922A
:103AE0001D1110921E1110921F11109220110C9492
:103AF00065268CE893E00E9498BA89E893E00E94DA
:103B0000B9B90C9465268091211182FD0E94E54D82
:103B10008091211183FD02C00C94652660E080E550
:103B20000E949153182F682F8091FF1190910012DD
:103B30000E944E8883E50E948BB7882381F00E9403
:103B4000E7B6AB01BC0140931D1150931E11609369
:103B50001F117093201189E19FE00E9488C30E9489
:103B6000678911110C9465260E943CAE0C94652661
:103B70002091FF1130910012909121119260909349
:103B80002111C9010E9404880C9465260E94EDADA4
:103B90007B018C0120E831E541E050E00E94CAED54
:103BA000C9016DE671E00E94ECF04B015C01C801B7
:103BB000B70120E13EE040E050E00E94CAEDCA01BA
:103BC000B90128E130E040E050E00E94CAED762ED5
:103BD000672EC62ED72EECE32E2E312C412C512CE5
:103BE000C801B701A20191010E94CAEDF62EE72E8D
:103BF000CA01B901A20191010E94CAEDCB018E0157
:103C00000F5F1F4F8114910499F0EF92FF927F9301
:103C10006F936F927F92BF92AF929F928F928AED35
:103C200093E09F938F931F930F930E9428E713C0F5
:103C3000A114B104B1F0EF92FF927F936F936F9252
:103C40007F92BF92AF928AEC93E09F938F931F93E2
:103C50000F930E9428E70FB6F894DEBF0FBECDBFCA
:103C600030C0CD2879F0EF92FF927F936F936F92DF
:103C70007F928EEB93E09F938F931F930F930E94FD
:103C800028E7E9CF892B69F0EF92FF927F936F933A
:103C900086EB93E09F938F931F930F930E9428E7E7
:103CA000DACFEF92FF9282EB93E09F938F931F9373
:103CB0000F930E9428E70F900F900F900F900F9096
:103CC0000F9060E0C8010E943A810E94ADBAB8012D
:103CD0008EEE93E00E9498BA8AE00E940A2FF5C700
:103CE00083E50E948BB7882309F4EFC70E94F7B6DB
:103CF000F82E6DE070E080E50E9449B88C0197FFD6
:103D000001C0E3C7893019F4F0922006DEC760E0F5
:103D100089E40E94915381110C94E82B802F0E941A
:103D2000B1D7811135C50C94E82B0E943CAECDC7AC
:103D300080910306813009F0C8C782E080930306B2
:103D40000E9413876093D90C7093DA0C8093DB0C7C
:103D50009093DC0CBAC70E945EAEB7C78091E40AAC
:103D600083FDB3C70E94B0BA87FDAFC783E50E9449
:103D70008BB7882379F00E940BB70E944AEFCB01E2
:103D80000E94C0420E94C244811104C00E945EAEE3
:103D90000E94D0680E943D4D98C70E941C5195C753
:103DA0000E94B0BA182F87FD0AC08BEF93E00E94E3
:103DB000B9B9812F0E94D0428AE00E940A2F6196F1
:103DC000BFAD6197B0933E030C94F02E80E50E9446
:103DD000A1C781117AC781E40E9442B7882321F0EC
:103DE0006091200670E002C06FEF70E083E50E94F2
:103DF00019538F3F910519F010F08FEF90E08093E9
:103E0000200663C780E50E94A1C781115EC710929A
:103E100020065BC78EE40E948BB7882309F455C740
:103E20000E94E7B6609388127093891280938A1279
:103E300090938B124AC783E50E9442B7882329F0EA
:103E400083E50E94A1C78093E40A0E94ADBA8CE08A
:103E500094E00E94B9B98091E40A882369F172E084
:103E6000E72E74E0F72E00E010E020E08091E40AF5
:103E700090E0A0E0B0E0002E04C0B695A79597951D
:103E800087950A94D2F780FF0EC0DD24D394D20E1A
:103E9000222319F08CE20E940A2FF7018591949158
:103EA0000E94B9B92D2D0F5F1F4FE2E0EE0EF11CFD
:103EB00005301105D9F68FCD8EEF93E08ACD41E024
:103EC00060E070E083E194E00E949630FEC60E94BC
:103ED0000731FBC683E50E948BB7882371F00E94EF
:103EE000F7B6282F30E02D3331051CF48093000203
:103EF000ECC68CE380930002E8C60E94ADBA409104
:103F0000000250E060E070E081E294E00E9460BA5C
:103F10008AE00E940A2FD9C68091E40A83FDD5C6A3
:103F200083E50E948BB7882371F00E940BB70E9433
:103F30004AEF6C3871050CF48B011093E103009388
:103F4000E0030E9401CB0E94C2448111BEC60E94C0
:103F50005EAE0E94D068B9C68091E40A83FDB5C602
:103F600083E50E948BB721968FAF219781110C9426
:103F7000F62B82E50E948BB781110C94F62BA5C617
:103F800083E50E948BB7882309F49FC60E94F7B689
:103F9000182F90E0CD970CF01CE3109338030E948B
:103FA00013876B017C01212F30E0A8EEB3E00E9463
:103FB000F6EDC60ED71EE81EF91EC0923403D0924D
:103FC0003503E0923603F09237037FC680913D03BC
:103FD0008F7D806180933D0378C680913D038F7E05
:103FE000806280933D0371C683E50E948BB788236E
:103FF00099F00E940BB720E030E04AE754E40E94B9
:10400000F3E70E944FEF60930102709302028093E6
:1040100003029093040259C68091FB1184FF02C0F1
:104020000C948E2D8091FD1187FF02C00C948E2D73
:104030008091FE11837011F00C948E2D0E94524FCE
:1040400044C683E50E9442B7882309F43EC60E9415
:1040500013876093D6057093D7058093D805909306
:10406000D9050E940BB720E030E04AE754E40E94F3
:10407000F3E70E944FEF6093390370933A03809304
:104080003B0390933C0321C60E94B0BA87FD1DC636
:104090009091FB1194FD04C09091FD1197FF0AC00F
:1040A00035E6C32E32E0D32E45EEE42E4AE0F42E60
:1040B00010E009C09091FE11937091F7682F81E094
:1040C0000E94465302C6D6018D916D010E948BB7A6
:1040D000882309F459C0133009F04FC00E940BB770
:1040E0004B015C0120E030E040EA51E40E948EE7A1
:1040F00087FF3AC0A50194016091050B7091060BF2
:104100008091070B9091080B0E94E2EE2B013C017D
:104110009B01AC016091150B7091160B8091170BF0
:104120009091180B0E94F3E76093150B7093160B98
:104130008093170B9093180B6091140670911506DD
:1041400080911606909117060E9492E7A3019201B2
:104150000E94F3E70E944FEF6093140670931506D8
:1041600080931606909317068092050B9092060B8B
:10417000A092070BB092080B07C00E940BB7F70183
:10418000648B758B868B978B1F5FF4E0EF0EF11CB1
:10419000143009F098CF0E94C24D97C50E94E54D9A
:1041A0000E94477192C58091FF1190910012009773
:1041B00009F4C3CBDC012C91222309F4BECB60E0CF
:1041C0000E943A8182C50091FF111091001294E083
:1041D000F12C40E0915021F1F8018081282F2B7FB4
:1041E000213421F421812133D9F407C08035C1F471
:1041F000818180538A3048F013C0813421F08534A6
:1042000021F441E002C0FF24F39498012E5F3F4F58
:1042100089012F5F3F4FF80180818032C9F3DACFE7
:1042200041110E94ADBAFF2021F082E496E00E9485
:10423000B9B9C8010E940B3048C50E944D7245C5EE
:1042400081E08093F2038093F1030E946F723DC579
:104250001092F2031092F1030E946F7236C560E073
:1042600070E083E50E9449B88C01112702301105E6
:104270003CF00E94AABA86E496E00E94B9B925C52E
:1042800088E40E948BB78823A9F00E9408B78A3A75
:1042900091053CF08530F1E09F072CF084E091E03F
:1042A00002C08AEA90E0F801EE0FFF1FE354F44FDA
:1042B0009183808386E40E948BB7882381F00E94DB
:1042C00008B797FD07C08F3F910529F024F08FEFC5
:1042D00090E001C080E0F801E954F44F808382E46B
:1042E0000E948BB7882309F4F0C40E9408B7853078
:1042F000910534F08D3891052CF08CE890E002C0E7
:1043000085E090E0F801EE0FFF1FE754F44F918332
:104310008083DBC40E94B0BA182F87FDD6C484E422
:104320000E9442B78823E9F10E940BB76B017C0120
:1043300001E020E030E0A9010E948EE7811101C078
:1043400000E000939B0B20E030E0A901C701B6011B
:104350000E948EE7882329F124E01202F001112443
:10436000E056F44FC082D182E282F38220E030E056
:10437000A9016091A00B7091A10B8091A20B90916B
:10438000A30B0E948EE781110CC080E090E0A0EEAC
:10439000BFE38093A00B9093A10BA093A20BB093CB
:1043A000A30B0E94F36891C40E94B0BA87FD8DC42C
:1043B000A5E6EA2EA2E0FA2E05EE1AE0B5EFCB2E26
:1043C000BAE0DB2ED7018D917D010E9442B7882390
:1043D00059F00E940BB70E944FEFF8016083718380
:1043E000828393830E947B4D0C5F1F4FC016D106C2
:1043F00049F76BC40E94B0BA87FD67C4F5E6EF2E9B
:10440000F2E0FF2E05EE1AE0D7018D917D010E94AA
:1044100042B7882339F00E940BB7F80164A375A353
:1044200086A397A30C5F1F4FFAE0053F1F0761F7B4
:104430004CC48091FC1187FF02C00C94BF2D809169
:10444000FD118E7011F00C94BF2D4091190B5091FD
:104450001A0B60911B0B70911C0B8BE696E00E946F
:104460007CBA40911D0B50911E0B60911F0B7091F7
:10447000200B88E696E00E947CBA4091210B509177
:10448000220B6091230B7091240B83EA9BE10E9425
:104490007CBA8AE00E940A2F18C48091FB1181FF28
:1044A00002C00C94052E8091FC1181FF02C00C9477
:1044B000052E8091FD118C7011F00C94052E05C411
:1044C00075E6C72E72E0D72EE5EFEE2EE3E0FE2E66
:1044D00010E0D6018D916D010E9442B7882351F002
:1044E0000E940BB7F7016083718382839383812FCE
:1044F0000E94916D1F5FF4E0EF0EF11C133049F73D
:104500000C94F21840903E0B50903F0B6090400B83
:104510007090410B20913C0230913D0240913E024F
:1045200050913F02C301B2010E9406EE68A379A335
:104530008AA39BA38090420B9090430BA090440BC6
:10454000B090450B209140023091410240914202CF
:1045500050914302C501B4010E9406EE6CA37DA3F5
:104560008EA39FA3C090460BD090470BE090480BC2
:10457000F090490B2091440230914502409146024F
:1045800050914702C701B6010E9406EE68A779A7BD
:104590008AA79BA7209148023091490240914A0284
:1045A00050914B02C301B2010E9406EE2B013C0167
:1045B00020914C0230914D0240914E0250914F0299
:1045C000C501B4010E9406EE4B015C01209150022E
:1045D000309151024091520250915302C701B601ED
:1045E0000E9406EE6B017C010E94ADBA8FEA96E054
:1045F0000E94B9B983E50E9442B7882321F00E9446
:104600002DD18093540280915402882319F08CEAB2
:1046100095E102C088EA95E10E94B9B987EA96E07F
:104620000E94B9B948A159A16AA17BA18AE996E083
:104630000E947CBA4CA15DA16EA17FA18BE29CE19E
:104640000E947CBA48A559A56AA57BA588E29CE191
:104650000E947CBA85EA96E00E94B9B98DE996E09D
:104660000E94B9B9B301A2018AE996E00E947CBA1E
:10467000B501A4018BE29CE10E947CBAB701A601BE
:1046800088E29CE10E947CBA8AE00E940A2F1DC346
:1046900083E50E948BB7882309F417C30E9408B7EB
:1046A000909356028093550210C30E94B0BAF82E20
:1046B00087FD0BC383E50E948BB70F2D0F2C000CD9
:1046C000110B882369F10E9408B7F801EE0FFF1F54
:1046D000E15AFD4F91838083000F111F000F111FBE
:1046E00098012A5C3D4F7901BC01990F880B990B09
:1046F0000E9494E72AE037ED43E25CE30E94F3E78F
:10470000F801E456F44F20813181428153810E94A7
:10471000F3E7D7016D937D938D939C931397D5C247
:104720000E94ADBA85E40E940A2F80E38F0D0E949B
:104730000A2FF801EE0FFF1FE15AFD4F60817181D2
:104740008FEB96E00E948CBA85E20E940A2F8AE0E5
:104750000E940A2FBAC280E50E9442B7882309F45A
:10476000B4C260E070E080E50E9449B8F82E6FEFB7
:104770007FEF83E50E9449B88C010196039708F00A
:10478000A4C2F7FCA2C28F2D0E94B1D7882339F0B2
:104790000E94AABA87EC96E00E94B9B996C20E941C
:1047A000E54D60E08F2D0E94D8850F3FBFEF1B07BE
:1047B00031F00130110571F000E010E00DC08F2DD7
:1047C0000E946F8531E020E0892B09F030E0032F53
:1047D000122F02C001E010E08F2D0E946F8580171C
:1047E000910709F472C20E949831F6CF64E071E03B
:1047F00083E50E9419538C0168EE73E080E50E9406
:1048000019538938E3E19E0710F088E893E1B80175
:104810000E9473975AC285E40E94A1C7811173C098
:1048200080E50E9442B7882351F00E940BB7609345
:104830000D0F70930E0F80930F0F9093100F89E45C
:104840000E9442B7882381F00E940BB72CEA35EC16
:1048500047E25EE30E94F3E76093110F7093120F3B
:104860008093130F9093140F84E40E9442B788231F
:1048700081F00E940BB72CEA35EC47E25EE30E9420
:10488000E2EE6093150F7093160F8093170F9093BD
:10489000180F0E94ADBA40910D0F50910E0F60910C
:1048A0000F0F7091100F80EF96E00E947CBA2CEAF7
:1048B00035EC47E25EE36091110F7091120F809129
:1048C000130F9091140F0E94E2EEAB01BC018CEE2D
:1048D00096E00E947CBA2CEA35EC47E25EE36091F8
:1048E000150F7091160F8091170F9091180F0E945D
:1048F000F3E7AB01BC0188EE96E00E947CBA8AE047
:104900000E940A2FE2C10E94AABA86ED96E00E9498
:10491000B9B9DBC183E50E9442B7182F882371F033
:104920000E940BB70E944AEF70933B0260933A02D9
:1049300021E0672B09F020E02093310680E50E94FA
:1049400042B7882359F020913A0230913B02232B41
:1049500011F00E942DD180933106B7C11111B5C15C
:104960000E94ADBA80E197E00E94B9B9809131060A
:10497000882319F088EF96E002C084EF96E00E9449
:10498000B9B960913A0270913B028FEF96E00E94B4
:104990008CBA8BEF96E00E94B9B997C10E94E54DA1
:1049A00094C188E50E9442B7D82E89E40E9442B79C
:1049B000C82E882321F00E9408B7A82E28C0DD2029
:1049C00011F10E940BB720913E0B30913F0B4091AB
:1049D000400B5091410B0E9405EE20E030E040E793
:1049E00051E40E9405EE20E030E04FE252E40E94E4
:1049F00006EE27EE3EE34BE35CE30E94F3E70E9402
:104A00004AEF633018F0AA24AA9401C0A62E89E5C3
:104A10000E9442B7F82E8AE40E9442B7182F8823DA
:104A200021F00E9408B7B82E28C0FF2011F10E9483
:104A30000BB72091420B3091430B4091440B5091A6
:104A4000450B0E9405EE20E030E040E751E40E9473
:104A500005EE20E030E040E252E40E9406EE2DEC4C
:104A60003CEC4CE45CE30E94F3E70E944AEF6330C5
:104A700018F0BB24BA9401C0B62E8AE50E9442B752
:104A8000E82E811105C081E50E9442B7082F01C0C0
:104A900000E0C11001C010E0212F30E0D11001C0B2
:104AA000F12C2F0D311D2130310521F4E11009C009
:104AB000011107C00E94AABA82E497E00E94B9B926
:104AC00004C1A7FC02C0B7FE07C00E94AABA83E2D5
:104AD00097E00E94B9B9F9C00E940BB7EA2CAA0C62
:104AE000FF08AB2DBB0CBB0B002391F0F701EE0FC1
:104AF000FF1FEE0DFF1DEA0FFB1FEE0FFF1FEE0F56
:104B0000FF1FE958F44F208131814281538103C056
:104B100020E030E0A901F701EE0FFF1FEE0DFF1DB1
:104B2000EA0FFB1FEE0FFF1FEE0FFF1F8F0109584B
:104B3000144F0E9406EED8016D937D938D939C9344
:104B40001397C3C09091560B90FD02C087E001C03F
:104B500086E091FD8D7FFE0131961F0192FD02C01E
:104B60000C945E2E8B7F11F00C948B2E09E119E1D1
:104B700026E232E039A328A392E6C92E99E1D92E84
:104B80007F01F8016591759185919491A8A1B9A1D2
:104B90008D909D90AD90BD90B9A3A8A3A50194015F
:104BA0000E9405EE2B013C01F70160837183828333
:104BB000938320E030E040EA51EC0E942CF087FD26
:104BC0000AC020E030E040EA51E4C301B2010E9493
:104BD0008EE7181634F4F6018491181614F40C9428
:104BE0008E2ED7018D909D90AD90BD907D0120E0DF
:104BF00030E040EA51ECC501B4010E942CF087FF7F
:104C000002C00C94D12E20E030E040EA51E4C5010E
:104C1000B4010E948EE7181614F00C949A2E0C948E
:104C2000D12E0E9435A951C00E946F7B4EC061E019
:104C300083E50E9491538F250E94937346C081E0C3
:104C40008093B20B0E9410761092B20B8823E9F188
:104C50000E94ADBA80EB97E00E94B9B936C080914E
:104C6000211182FF32C08064809321112EC081E027
:104C7000809364021092EC0B60E083E50E949153F4
:104C8000811123C00E9448D320C00E9493C71DC039
:104C900000910112109102120023B9F00E94ADBAE6
:104CA00084E50E940A2FB8017727072E000C880B95
:104CB000990B0E947C2F80E20E940A2F8BEB97E0D9
:104CC0000E94B9B902C00E9493C76396FFAD639773
:104CD000F11102C00E9438D361962FAD61972093E5
:104CE0003E030C94F02E11E032E02316310409F05B
:104CF00010E020E030E0A901C701B6010E948EE774
:104D0000881F8827881F1813A4C080E090E0A0E8BF
:104D1000BFE388A799A7AAA7BBA728A139A14AA141
:104D20005BA1C501B4010E9405EE20E030E040E047
:104D30005FE30E94F3E768A379A38AA39BA32CA156
:104D40003DA14EA15FA1C301B2010E9405EE20E08A
:104D500030E040E05FE30E94F3E76CA37DA38EA305
:104D60009FA328A139A14AA15BA1CA01B9010E9450
:104D7000F3E74B015C012CA13DA14EA15FA1CA014B
:104D8000B9010E94F3E79B01AC01C501B4010E9487
:104D900006EE0E9472F04B015C019B01AC01C70161
:104DA000B6010E9405EE2B013C01A5019401C7014B
:104DB000B6010E9406EE9B01AC01C301B2010E9444
:104DC000F3E76B017C0120E030E0A9010E942CF0A8
:104DD00087FD07C0C701B6010E9472F02B013C019C
:104DE00003C0412C512C32016CA17DA18EA19FA149
:104DF0009058A50194010E94E2EE28A539A54AA584
:104E00005BA50E94F3E7A30192010E94F3E728A1AA
:104E100039A14AA15BA10E9406EE6B017C01A501AC
:104E2000940168A179A18AA19BA10E94E2EE28A524
:104E300039A54AA55BA50E94F3E7A30192010E9450
:104E4000F3E72CA13DA14EA15FA10E9406EE0C94B8
:104E5000091880E090E0A0E8BFEB5BCF0E94AABAFF
:104E600083ED92E00E94B9B930CF20E030E0A90193
:104E7000C701B6010E948EE7882381F318A619A600
:104E80001AA61BA6A7019601505828A339A34AA326
:104E90005BA388A599A5AAA5BBA5B0588CA39DA383
:104EA000AEA3BFA3CA01B9010E94F3E74B015C01A5
:104EB0002CA13DA14EA15FA1CA01B9010E94F3E757
:104EC0009B01AC01C501B4010E9406EE0E9472F084
:104ED0006CAF7DAF8EAF9FAF20912602309127023D
:104EE00040912802509129022CA73DA74EA75FA709
:104EF000A70196016CA57DA58EA59FA50E9406EE33
:104F000024966CAF7DAF8EAF9FAF249780912A021D
:104F100090912B02A0912C02B0912D0288AB99ABFD
:104F2000AAABBBAB28A539A54AA55BA5BC01CD01A1
:104F30000E9406EE28966CAF7DAF8EAF9FAF28978C
:104F40002091570B3091580B4091590B50915A0BAF
:104F50002CAB3DAB4EAB5FAB24962CAD3DAD4EAD17
:104F60005FAD24976CA97DA98EA99FA90E9405EE2B
:104F70006B017C0180915B0B90915C0BA0915D0BB0
:104F8000B0915E0B88AF99AFAAAFBBAF28962CAD9E
:104F90003DAD4EAD5FAD2897BC01CD010E9405EE41
:104FA0004B015C01A701960168A179A18AA19BA18F
:104FB0000E94F3E72B013C01A50194016CA17DA1A6
:104FC0008EA19FA10E94F3E79B01AC01C301B20136
:104FD0000E9406EE2B013C01A501940168A179A174
:104FE0008AA19BA10E94F3E74B015C01A7019601F6
:104FF0006CA17DA18EA19FA10E94F3E79B01AC0152
:10500000C501B4010E9405EEA30192010E9479EE50
:105010006B017C0120E030E0A9010E948EE787FF50
:105020000AC02BED3FE049EC50E4C701B6010E94F5
:1050300006EE6B017C012BED3FE049EC50E4C7012B
:10504000B6010E94E2EE20E030E040EC51E40E9424
:10505000F3E70E94CCEE0E944FEF8B01672B11F417
:1050600001E010E092E02916310451F42BED3FE00D
:1050700049EC50E4C701B6010E9405EE6B017C01CA
:1050800020E030E0A901C701B6010E948EE781113E
:1050900022C02CA93DA94EA95FA96CA57DA58EA50E
:1050A0009FA50E948EE7811116C028AD39AD4AAD8B
:1050B0005BAD68A979A98AA99BA90E948EE7811195
:1050C0000AC008E110E03BEDC32E3FE0D32E39ECDF
:1050D000E32E30E4F32E20912E0230912F024091E6
:1050E00030025091310228AB39AB4AAB5BAB6091D7
:1050F0005F0B7091600B8091610B9091620B0E942D
:1051000005EE2B013C01A70196016CAD7DAD8EAD86
:105110009FAD0E94F3E74B015C0120E030E0A90164
:10512000C301B2010E948EE78823C9F0A501940152
:10513000C501B4010E94F3E74B015C01A301920198
:10514000C301B2010E94F3E79B01AC01C501B401A8
:105150000E9406EE0E9472F04B015C010DC020E03F
:1051600030E0A901C501B4010E942CF087FF04C002
:10517000B7FAB094B7F8B0942FE632E143E85AE3B7
:10518000C501B4010E948EE787FDFCC18091630BCD
:105190009091640BA091650BB091660B88AF99AFAD
:1051A000AAAFBBAF2091320230913302409134025A
:1051B000509135022CAB3DAB4EAB5FAB2AE037EDE7
:1051C00043E25CE36091570270915802809159026A
:1051D00090915A020E94F3E76CA77DA78EA79FA724
:1051E0006091550270915602072E000C880B990BA6
:1051F0000E9494E79B01AC016CA57DA58EA59FA59F
:105200000E94F3E76C8F7D8F8E8F9F8FC501B40155
:105210000E947BEF0E944FEF1B016017710708F49B
:105220001801B10180E090E00E9492E74B015C011F
:105230009B01AC01C701B6010E94E2EE6CA77DA7FD
:105240008EA79FA7A5019401C301B2010E94E2EEBF
:105250002C966CAF7DAF8EAF9FAF2C972CA93DA93C
:105260004EA95FA968AD79AD8AAD9BAD0E9405EEF0
:10527000A50194010E94E2EE60966CAF7DAF8EAF07
:105280009FAF60972CA53DA54EA55FA5CA01B901AA
:105290000E94F3E720E030E040E05FE30E94F3E7A4
:1052A0009B01AC0160E070E080E89FE30E9405EEA6
:1052B00068AF79AF8AAF9BAF88A999A9AAA9BBA902
:1052C00089879A87AB87BC872CA93DA94EA95FA97E
:1052D0002D873E874F87588B0E9413879B01AC0117
:1052E00028533F4F4F4F5F4F2CAF3DAF4EAF5FAF97
:1052F00048A059A06AA07BA041E050E059AB48AB60
:1053000059E15CAB88A999A98215930508F00EC1F3
:105310000E94C7CD0E941387DC01CB012CAD3DADAF
:105320004EAD5FAD821B930BA40BB50BB7FD0DC04B
:105330000E9413879B01AC0128533F4F4F4F5F4F93
:105340002CAF3DAF4EAF5FAFF3D73CA931503CAB74
:105350003323E9F12CA13DA14EA15FA168AD79AD48
:105360008AAD9BAD0E94F3E76B017C019201A30122
:105370006CA57DA58EA59FA50E94F3E7A7019601C8
:105380000E9406EE7B018C019201A30168AD79AD0C
:105390008AAD9BAD0E94F3E74B015C012CA13DA1BE
:1053A0004EA15FA16CA57DA58EA59FA50E94F3E7E8
:1053B0009B01AC01C501B4010E9405EE2B013C012B
:1053C000C701D8018CA39DA3AEA3BFA34FC048A91A
:1053D00059A9BA0180E090E00E9492E72CA53DA572
:1053E0004EA55FA50E94F3E74B015C010E94DFEE32
:1053F0006B017C01C501B4010E9468F04B015C01A6
:10540000A701960168A179A18AA19BA10E94F3E757
:105410002B013C0128A539A54AA55BA5C501B4010E
:105420000E94F3E7A30192010E9406EE2B013C01CA
:10543000A501940168A179A18AA19BA10E94F3E72B
:105440004B015C0128A539A54AA55BA5C701B6019A
:105450000E94F3E79B01AC01C501B4010E9405EE77
:105460006CA37DA38EA39FA359E15CAB9201A30122
:1054700024966CAD7DAD8EAD9FAD24970E9406EE57
:1054800069837A838B839C832CA13DA14EA15FA16C
:1054900028966CAD7DAD8EAD9FAD28970E9406EE2F
:1054A0006D837E838F8398872C962CAD3DAD4EAD5A
:1054B0005FAD2C9769857A858B859C850E9406EE69
:1054C00069877A878B879C8760962CAD3DAD4EAD02
:1054D0005FAD60976D857E858F8598890E9406EE09
:1054E0006D877E878F87988BCE0101960E94B16D64
:1054F000C12CD12C20E8E22E2FE3F22E8E01045E87
:105500001F4F9E01235F3F4FAE01475F5F4FBE01BC
:105510006B5F7F4FCE0101960E942868882331F08F
:1055200088A999A9019699AB88ABECCE80E1E7E513
:10553000FBE0DE01119601900D928A95E1F7CE0114
:1055400001960E94B16DC12CD12C90E8E92E9FE309
:10555000F92E8E01045E1F4F9E01235F3F4FAE0167
:10556000475F5F4FBE016B5F7F4FCE0101960E9488
:10557000286880E1FE013196A6E2B2E001900D922A
:105580008A95E1F70E9413876093D6057093D7053B
:105590008093D8059093D90598CB0E94E54DE09073
:1055A000890580E00E9466B8809157029091580268
:1055B000A0915902B0915A02809341039093420303
:1055C000A0934303B09344038091550290915602F7
:1055D0009093400380933F0384E690E090935602BB
:1055E0008093550281E08093F2030E946F7288E5F8
:1055F0000E9442B7182F89E50E9442B7F82E8AE52B
:105600000E9442B71F1196C0181711F0F12E92C0D8
:10561000FF24F39411E001E080E1E6E2F2E0A7E587
:10562000BBE001900D928A95E1F782E50E948BB76D
:10563000882369F00E940BB74B015C0120E030E049
:10564000A9010E948EE7882309F43EC006C0812C80
:10565000912C80EAA82E80E4B82E111102C0FF2000
:10566000E9F18091F40382FD09C060912E027091EE
:105670002F02809130029091310203C060E070E00F
:10568000CB01A50194010E9406EE60935F0B70931D
:10569000600B8093610B9093620B20912E023091EE
:1056A0002F0240913002509131020E942CF01816C6
:1056B0005CF419821A821B821C82BE016F5F7F4FCD
:1056C0008FE59BE00E9439C8112319F080E00E9409
:1056D00012DFFF2019F081E00E9412DF002319F091
:1056E00082E00E9412DF0E9445718091F103809355
:1056F000F2038E2D0E9466B880914103909142037F
:10570000A0914303B09144038093570290935802B1
:10571000A0935902B0935A0280913F0390914003A5
:10572000909356028093550283E0809363020E9417
:105730004771CBCA082F70CF11110C94251C0C9403
:105740001E1CF6D50C94491C0E94D0681092ED0BDB
:1057500010933E03BACA88E50E9442B781115F9850
:1057600089E50E9442B781118A988AE50E9442B772
:10577000882331F080910801817080930601479859
:1057800085E40E9442B7882309F49FCA12989DCAF3
:1057900060E084E293E00E94C7805F988A988091DD
:1057A0000801817080930601479812988ECA0E9462
:1057B000E7B6AB01BC0140931D1150931E116093DD
:1057C0001F117093201189E19FE00E9488C37DCA58
:1057D00061E0802F0E94D8856F2D802F0E949785D1
:1057E0006F2D70E0802F0E9414866FCA0E940BB745
:1057F0000E944AEF6C3871050CF08DC17093E10383
:105800006093E0030E9401CB0E94C24481110E9478
:105810003CAE6091E0037091E103072E000C880B11
:10582000990B0E9494E72091DC033091DD034091B5
:10583000DE035091DF030E942CF018161CF48BE35A
:1058400094E002C08CE294E060E00E94C78081E0B6
:10585000809313021CA21DA21EA21FA228961CAE9A
:105860001DAE1EAE1FAE289718A21CAEFCE32996F3
:10587000FFAF29972CE12D962FAF2D9736E4629636
:105880003FAF6297C12CD12C50E8E52E6FEBF62E7E
:1058900041E048AF812C912C54016091E00370915C
:1058A000E103072E000C880B990B0E9494E7162F3A
:1058B000072F782E692E9601A7010E948EE7882374
:1058C00031F12091DC033091DD034091DE035091F2
:1058D000DF0321968FAD2197612F702F811109C0B1
:1058E000872D962D0E948EE7881F8827881F88A302
:1058F00014C0872D962D0E948EE787FF0DC08091E2
:105900001302882309F4E1C90E94D068DEC91C2D66
:105910000D2D7E2C6F2C01C018A20E9413876B01E5
:105920007C01DC01CB0128962CAD3DAD4EAD5FADC9
:105930002897821B930BA40BB50BB7FD32C0D70180
:10594000C60188519C4FAF4FBF4F28968CAF9DAF7B
:10595000AEAFBFAF289780E00E94D04288E294E0CB
:105960000E94B9B981149104A104B104B1F0D50128
:10597000C401805F984DAF4FBF4FBC01CD016C1982
:105980007D098E099F0928EE33E040E050E00E9437
:10599000CAEDCA01B901B0D202C08FE33BD28AE09E
:1059A00039D2C6D40E9413876093D6057093D70569
:1059B0008093D8059093D9059091DC0398A7A09186
:1059C000DD03ACA7B091DE03B8ABE091DF03ECAB35
:1059D000292F3A2F4B2F5E2F612F702F872D962D59
:1059E0000E9405EE1B012C0120E030E0A9010E947D
:1059F0002CF087FF04C057FA509457F85094811444
:105A00009104A104B104B1F420E030E040E050E49E
:105A1000C201B1010E948EE787FF18C0F8AD4601B0
:105A20005701FF2399F020E1820E27E2921EA11C6C
:105A3000B11C0CC020E030E040E850E4C201B101EC
:105A40000E942CF0181614F44601570138A1332394
:105A500009F444C08CA19DA1AEA1BFA1892B8A2BC2
:105A60008B2B61F0D701C6012CA13DA14EA15FA1F6
:105A7000821B930BA40BB50BB7FD30C028A53CA52A
:105A800048A95CA96CAD29967FAD29972D968FAD5D
:105A90002D9762969FAD62970E9405EE20E030E060
:105AA00040EC5FE30E948EE787FD29CFD701C60156
:105AB000805A9541AF4FBF4F8CA39DA3AEA3BFA308
:105AC00098A59CAFACA52996AFAF2997B8A92D96FC
:105AD000BFAF2D97ECA96296EFAF6297809113024A
